:0400000077EF00F0A6
:100008004982E1CF32F0E2CF33F0D9CF34F0DACF02
:1000180035F0F3CF36F0F4CF37F0F2A416EF00F056
:1000280018EF00F069EF00F01F50050F1F6E050E66
:100038001924196E000E1A201A6E140E1F18D8A44F
:1000480028EF00F02AEF00F042EF00F079EC00F022
:10005800FDEC01F02050D8A434EF00F036EF00F0AA
:1000680040EF00F0010E296E000E63EC08F065EC1D
:1000780007F0000E09EC09F0000E1F6E640E191847
:100088001A10D8A44AEF00F04CEF00F064EF00F02B
:100098002004D8A452EF00F054EF00F060EF00F015
:1000A800000E296E000E63EC08F0F8EC06F065EC23
:1000B80007F0010E09EC09F0000E1A6E000E196E19
:1000C800F294000ED76ED80ED66E37C0F4FF36C045
:1000D800F3FF35C0DAFF34C0D9FF33C0E2FF32C0C6
:1000E800E1FF4992110081EF08F0000E2B6E000E1F
:1000F8002B6E2B50030D020EF324D96E000EF42044
:10010800DA6E2B50030D010EF324E16E000EF4207D
:10011800E26EDFCFE7FF11EF01F02B50030D020E67
:10012800F324D96E000EF420DA6E000E226E000E53
:1001380035EC05F0DF6ECEEF01F02B50030D020E0B
:10014800F324D96E000EF420DA6E010E226E000E32
:1001580035EC05F0DF6ECEEF01F02B50030D020EEB
:10016800F324D96E000EF420DA6E050E226E000E0E
:1001780035EC05F0DF6ECEEF01F02B50030D020ECB
:10018800F324D96E000EF420DA6E040E226E000EEF
:1001980035EC05F0DF6ECEEF01F02B50030D020EAB
:1001A800F324D96E000EF420DA6E020E226E010ED0
:1001B80035EC05F0DF6ECEEF01F02B50030D020E8B
:1001C800F324D96E000EF420DA6E010E226E010EB1
:1001D80035EC05F0DF6ECEEF01F02B50030D020E6B
:1001E800F324D96E000EF420DA6E030E226E000E90
:1001F80035EC05F0DF6ECEEF01F02B50030D020E4B
:10020800F324D96E000EF420DA6E000E226E010E71
:1002180035EC05F0DF6ECEEF01F02B50296E2A6A1F
:100228002A50000AD8B41BEF01F0CEEF01F0295094
:10023800000AD8B491EF00F0010AD8B4A1EF00F099
:10024800030AD8B4B1EF00F0010AD8B4C1EF00F046
:10025800070AD8B4D1EF00F0010AD8B4E1EF00F0F2
:10026800030AD8B4F1EF00F0010AD8B401EF01F0A5
:10027800CEEF01F02B50030D010EF324D96E000EC2
:10028800F420DA6EDF50D8A44CEF01F04EEF01F005
:10029800F3EF01F02B50030D020EF324D96E000E7C
:1002A800F420DA6EDF50D8A45CEF01F05EEF01F0C5
:1002B800F3EF01F02B50030D030EF324D96E000E5B
:1002C800F420DA6E010EDF6EF3EF01F02B50030D10
:1002D800020EF324D96E000EF420DA6EDF50D8A493
:1002E80078EF01F07AEF01F0F3EF01F02B50030DF6
:1002F800030EF324D96E000EF420DA6E020EDF6EC0
:10030800F3EF01F02B50030D010EF324D96E000E0C
:10031800F420DA6EDE04D8A494EF01F096EF01F031
:10032800F3EF01F02B50030D020EF324D96E000EEB
:10033800F420DA6EDE04D8A4A4EF01F0A6EF01F0F1
:10034800F3EF01F02B50030D030EF324D96E000ECA
:10035800F420DA6E030EDF6EF3EF01F02B50030D7D
:10036800020EF324D96E000EF420DA6EDE04D8A44F
:10037800C0EF01F0C2EF01F0F3EF01F02B50030DD5
:10038800030EF324D96E000EF420DA6E000EDF6E31
:10039800F3EF01F02B50030D030EF324D96E000E7A
:1003A800F420DA6EDF50296E2A6A2A50000AD8B47F
:1003B800E0EF01F0F3EF01F02950000AD8B43EEF66
:1003C80001F0010AD8B46AEF01F0030AD8B486EF45
:1003D80001F0010AD8B4B2EF01F0F3EF01F02B2AD3
:1003E800070E2B64FAEF01F0FCEF01F07DEF00F04F
:1003F8001200000EDEEC08F0E806D8A406EF02F0C2
:1004080008EF02F023EF02F01C50D8B40EEF02F010
:1004180010EF02F023EF02F01B50D8B416EF02F0F1
:1004280018EF02F023EF02F0630E1E601EEF02F0D9
:1004380020EF02F0A0EF02F01E2AA0EF02F0010E5A
:10044800DEEC08F0E806D8A42CEF02F02EEF02F05C
:1004580049EF02F01C50D8B434EF02F036EF02F046
:1004680049EF02F01B50D8B43CEF02F03EEF02F027
:1004780049EF02F0010E1E6444EF02F046EF02F06D
:10048800A0EF02F01E06A0EF02F0030EDEEC08F06B
:10049800E806D8A452EF02F054EF02F062EF02F03F
:1004A8001B50D8B45AEF02F05CEF02F062EF02F092
:1004B800000E1E6E010E1C6EA0EF02F0040EDEECA4
:1004C80008F0E806D8A46BEF02F06DEF02F085EFB4
:1004D80002F01B50D8B473EF02F075EF02F085EF0D
:1004E80002F01C04D8A47BEF02F07DEF02F081EF4C
:1004F80002F0000E1C6EA0EF02F0010E1C6EA0EFC1
:1005080002F0020EDEEC08F0E806D8A48EEF02F046
:1005180090EF02F0A0EF02F0000E1E6E1B04D8A4AC
:1005280098EF02F09AEF02F09EEF02F0000E1B6EB9
:10053800A0EF02F0010E1B6E050EDEEC08F0E806D7
:10054800D8B4A9EF02F0ABEF02F0C1EF02F0060E4B
:10055800DEEC08F0E806D8B4B4EF02F0B6EF02F02B
:10056800C1EF02F0070EDEEC08F0E806D8A4BFEFF2
:1005780002F0C1EF02F0CBEF02F01B50D8B4C7EF86
:1005880002F0C9EF02F0CBEF02F0010E206E1EC0A0
:1005980022F0236A000E256E0A0E246EACEC05F0DC
:1005A80022502A6E000EFFEC08F01EC022F0236ACB
:1005B800000E256E0A0E246E0EEC06F022502A6EEE
:1005C800010EFFEC08F012000001666F34EF03F033
:1005D800000E386E010E396E000E3AEC04F062EF30
:1005E80003F0010E386E010E396E000E3AEC04F07D
:1005F80062EF03F0050E386E010E396E000E3AEC0C
:1006080004F062EF03F0040E386E010E396E000E2E
:100618003AEC04F062EF03F0020E386E010E396E08
:10062800010E3AEC04F062EF03F0010E386E010E91
:10063800396E010E3AEC04F062EF03F0030E386EE7
:10064800010E396E000E3AEC04F062EF03F0000E72
:10065800386E010E396E010E3AEC04F062EF03F0C9
:1006680000016651646F656B6551000AD8B43FEFAD
:1006780003F062EF03F06451000AD8B4ECEF02F023
:10068800010AD8B4F5EF02F0030AD8B4FEEF02F07D
:10069800010AD8B407EF03F0070AD8B410EF03F043
:1006A800010AD8B419EF03F0030AD8B422EF03F013
:1006B800010AD8B42BEF03F062EF03F00001665192
:1006C800030D030EF324D96E000EF420DA6E3BC03E
:1006D800DFFF9BEF03F06651030D010EF324D96E83
:1006E800000EF420DA6E010EDF6E6651030D020E65
:1006F800F324D96E000EF420DA6E010EDF6EB8EF27
:1007080003F06651030D010EF324D96E000EF42098
:10071800DA6E000EDF6E6651030D020EF324D96EF9
:10072800000EF420DA6E000EDF6EB8EF03F03B50D7
:10073800646F656B6551000AD8B4A5EF03F0B8EF94
:1007480003F06451000AD8B46FEF03F0010AD8B47B
:1007580085EF03F0030AD8B485EF03F0010AD8B493
:100768006FEF03F0B8EF03F012003A6E1FEF04F0DA
:1007780038C060F039C061F0602BC5EF03F0D89045
:100788006137602FC3EF03F038C062F0010E00013B
:10079800636F622BD2EF03F0D8906337622FD0EFEC
:1007A80003F000016351FF0A80146111806E39EF74
:1007B80004F038C060F039C061F0602BE6EF03F058
:1007C800D8906137602FE4EF03F038C062F0010E73
:1007D8000001636F622BF3EF03F0D8906337622F49
:1007E800F1EF03F000016351FF0A81146111816E7A
:1007F80039EF04F038C060F039C061F0602B07EFC2
:1008080004F0D8906137602F05EF04F038C062F02B
:10081800010E0001636F622B14EF04F0D890633768
:10082800622F12EF04F000016351FF0A8214611174
:10083800826E39EF04F03A500001606F616B6151CC
:10084800000AD8B42AEF04F039EF04F06051000A26
:10085800D8B4BCEF03F0010AD8B4DDEF03F0030A03
:10086800D8B4FEEF03F039EF04F012003A6EA0EFAF
:1008780004F038C060F039C061F0602B46EF04F036
:10088800D8906137602F44EF04F038C062F0010E51
:100898000001636F622B53EF04F0D8906337622F27
:1008A80051EF04F000016351FF0A92146111926E36
:1008B800BAEF04F038C060F039C061F0602B67EF20
:1008C80004F0D8906137602F65EF04F038C062F00B
:1008D800010E0001636F622B74EF04F0D890633748
:1008E800622F72EF04F000016351FF0A9314611143
:1008F800936EBAEF04F038C060F039C061F0602B35
:1009080088EF04F0D8906137602F86EF04F038C084
:1009180062F0010E0001636F622B95EF04F0D8902E
:100928006337622F93EF04F000016351FF0A9414B8
:100938006111946EBAEF04F03A500001606F616B78
:100948006151000AD8B4ABEF04F0BAEF04F060517B
:10095800000AD8B43DEF04F0010AD8B45EEF04F001
:10096800030AD8B47FEF04F0BAEF04F01200286E3F
:100978001BEF05F022C024F023C025F0242AC7EF7E
:1009880004F0D8902536242EC5EF04F022C026F0B6
:10099800010E276E262AD3EF04F0D8902736262E8C
:1009A800D1EF04F02750FF0A80142510806E34EF31
:1009B80005F022C024F023C025F0242AE6EF04F035
:1009C800D8902536242EE4EF04F022C026F0010E3C
:1009D800276E262AF2EF04F0D8902736262EF0EF5D
:1009E80004F02750FF0A81142510816E34EF05F0BA
:1009F80022C024F023C025F0242A05EF05F0D89062
:100A08002536242E03EF05F022C026F0010E276EAE
:100A1800262A11EF05F0D8902736262E0FEF05F07D
:100A28002750FF0A82142510826E34EF05F02850F3
:100A3800246E256A2550000AD8B425EF05F034EF56
:100A480005F02450000AD8B4BEEF04F0010AD8B467
:100A5800DDEF04F0030AD8B4FCEF04F034EF05F03E
:100A68001200276E000E286E91EF05F022C023F0C9
:100A780022C024F0010E256E242A45EF05F0D890F7
:100A88002536242E43EF05F025508014266E232AA0
:100A980050EF05F0D8902632232E4EEF05F0265061
:100AA800286EAAEF05F022C023F022C024F0010E20
:100AB800256E242A62EF05F0D8902536242E60EFA3
:100AC80005F025508114266E232A6DEF05F0D89085
:100AD8002632232E6BEF05F02650286EAAEF05F07C
:100AE80022C023F022C024F0010E256E242A7FEFB5
:100AF80005F0D8902536242E7DEF05F02550821478
:100B0800266E232A8AEF05F0D8902632232E88EF06
:100B180005F02650286EAAEF05F02750236E246AA8
:100B28002450000AD8B49BEF05F0AAEF05F0235033
:100B3800000AD8B43AEF05F0010AD8B457EF05F027
:100B4800030AD8B474EF05F0AAEF05F02850120094
:100B5800000E276E25BEB5EF05F0B3EF05F0BBEF2D
:100B680005F0246C251ED8B0252A010E276E23BE59
:100B7800C2EF05F0C0EF05F0C8EF05F0226C231EA8
:100B8800D8B0232A010E271A000E296E000E286EEF
:100B980024502510D8B4D3EF05F0D5EF05F0FDEFBC
:100BA80005F0010E266EDDEF05F0D89024362536C7
:100BB800262A25AEE2EF05F0E4EF05F0D9EF05F0BF
:100BC800D890283629362450225C25502358D8A09E
:100BD800F0EF05F0F2EF05F0F7EF05F02450225E94
:100BE8002550235A2880D89025322432262EE4EF27
:100BF80005F02750D8B403EF06F005EF06F009EF2B
:100C080006F0286C291ED8B0292A28C022F029C04D
:100C180023F01200000E276E23BE17EF06F015EF23
:100C280006F01DEF06F0226C231ED8B0232A010E11
:100C3800276E25BE24EF06F022EF06F028EF06F017
:100C4800246C251ED8B0252A24502510D8B42FEF9F
:100C580006F031EF06F055EF06F0010E266E39EF7B
:100C680006F0D89024362536262A25AE3EEF06F023
:100C780040EF06F035EF06F02450225C255023584B
:100C8800D8A049EF06F04BEF06F04FEF06F02450DE
:100C9800225E2550235AD89025322432262E40EF42
:100CA80006F02750D8B45BEF06F05DEF06F061EF71
:100CB80006F0226C231ED8B0232A22C022F023C0BB
:100CC80023F0120026EC09F0000E3B6E000EE8EC53
:100CD80002F0000E3B6E010EE8EC02F0000E3B6ED7
:100CE800020EE8EC02F0000E3B6E030EE8EC02F098
:100CF800000E3B6E040EE8EC02F0000E3B6E050E93
:100D0800E8EC02F0000E3B6E060EE8EC02F0000E76
:100D18003B6E070EE8EC02F0000E0001656F010E55
:100D2800646FCEEC08F0000E00016A6F0A0E6B6F5C
:100D3800000EB5EC06F0000E00016A6F0A0E6B6F2C
:100D4800010EB5EC06F0000E0001676F000E1DECF9
:100D580008F020EC09F0EBEC08F0B1EF06F077EFC3
:100D680000F000016E6F000E3B6E020E9EEC08F064
:100D780046C03BF0020E31EC07F0D5EF06F0060E48
:100D8800386E000E396E000E3AEC04F0EBEF06F008
:100D9800070E386E000E396E000E3AEC04F0EBEFD9
:100DA80006F000016E516C6F6D6B6D51000AD8B47E
:100DB800E0EF06F0EBEF06F06C51000AD8B4C3EF91
:100DC80006F0010AD8B4CCEF06F0EBEF06F06AC0E3
:100DD8003BF000016E51C5EC07F06BC038F0000124
:100DE8006E51F5EC08F012001D2A1E501D18D8A4EB
:100DF80000EF07F002EF07F00DEF07F0010E296E84
:100E0800000E63EC08F0000E206E000E1D6E14EF4D
:100E180007F0000E296E000E63EC08F0010E206E3C
:100E28001DC022F0236A000E256E0A0E246EACEC5B
:100E380005F022502A6E000EFFEC08F01DC022F0CB
:100E4800236A000E256E0A0E246E0EEC06F0225060
:100E58002A6E010EFFEC08F012000001686F000E08
:100E68000001696F000E696F69C038F069C064F0ED
:100E780069C065F0010E666F652B45EF07F0D890E5
:100E88006637652F43EF07F0000166513B14676F23
:100E9800642B51EF07F0D8906733642F4FEF07F0BA
:100EA80000016751396E6851B9EC03F00001692BF4
:100EB800070E696562EF07F064EF07F038EF07F097
:100EC8001200000E296E000EF2EC07F0000E296EDB
:100ED800010EF2EC07F0470E2124D96EDA6A000EF3
:100EE800DA22DF50306E316A3C0E3024D96E000EA3
:100EF8003120DA6EDF50296E020E96EC07F0010EF3
:100F0800296E2150F2EC07F02104D8A48EEF07F0E7
:100F180090EF07F094EF07F0000E216E95EF07F0C1
:100F2800212A12002E6E000E2F6E000E2F6E2FC07B
:100F380022F02FC02AF02FC02BF0010E2C6E2B2A86
:100F4800A8EF07F0D8902C362B2EA6EF07F02C50E0
:100F580029142D6E2A2AB3EF07F0D8902D322A2EA5
:100F6800B1EF07F02D50236E2E50BBEC04F02F2A62
:100F7800070E2F64C2EF07F0C4EF07F09BEF07F0EE
:100F880012000001666FDBEF07F0060E386E3BC0FB
:100F980039F0000EB9EC03F0F1EF07F0070E386EE8
:100FA8003BC039F0000EB9EC03F0F1EF07F0000197
:100FB8006651646F656B6551000AD8B4E6EF07F0B7
:100FC800F1EF07F06451000AD8B4C9EF07F0010A3D
:100FD800D8B4D2EF07F0F1EF07F012002C6E07EF4C
:100FE80008F0060E226E29C023F0000EBBEC04F0B8
:100FF8001CEF08F0070E226E29C023F0000EBBEC90
:1010080004F01CEF08F02C502A6E2B6A2B50000AB3
:10101800D8B411EF08F01CEF08F02A50000AD8B431
:10102800F5EF07F0010AD8B4FEEF07F01CEF08F05F
:10103800120000016A6F2AEF08F0050E386E000EE4
:10104800396E010E3AEC04F03CEF08F000016A51E9
:10105800686F696B6951000AD8B435EF08F03CEF46
:1010680008F06851000AD8B421EF08F03CEF08F006
:1010780067C03BF000016A5143EC08F01200000120
:10108800666F50EF08F0050E386E3BC039F0010E60
:10109800B9EC03F062EF08F000016651646F656B0C
:1010A8006551000AD8B45BEF08F062EF08F06451AC
:1010B800000AD8B447EF08F062EF08F012002C6E6F
:1010C8006FEF08F0050E226E29C023F0010EBBEC6D
:1010D80004F080EF08F02C502A6E2B6A2B50000A7F
:1010E800D8B479EF08F080EF08F02A50000AD8B495
:1010F80066EF08F080EF08F01200320EF66E120E5E
:10110800F76E000EF86E00EE3CF010EE0DF00900E0
:10111800F5CFEEFFE550E150FAE100EE01F0210EC7
:10112800EE6AE806FDE149904992000EF86E00016A
:1011380066EF06F00001646F000E0001656F000E97
:10114800656F65C038F03BC039F064513AEC04F083
:101158000001652B070E6565B4EF08F0B6EF08F0DF
:10116800A5EF08F01200000E896E000E8A6E000EC0
:101178008B6E3F0E926EDF0E936E000E946E000E15
:101188000F013A6F180E396F040E386F000E616E3A
:10119800F18E1200070E386E000E396E010E3AEC11
:1011A80004F064C01EF0000E1D6E010E1C6E010ED0
:1011B8001B6E1200226E2250030D030EF324D96E0B
:1011C800000EF420DA6EDF50236E23501200F294E2
:1011D800000ED76ED80ED66EF28AF28ED58AD59AC0
:1011E8001200396E470E3924D96EDA6A000EDA22F7
:1011F80038C0DFFF12002B6E470E2B24D96EDA6A37
:10120800000EDA222AC0DFFF1200296E070E226EB6
:1012180029C023F0010EBBEC04F01200600ED36E5F
:10122800040ED26E000E9B6E1200C0F9A4B0999203
:0712380082F88090000A001B
:10124000D58AD596D580D582D5841200B7EC08F022
:0612500012EC09F012008F
:020000040020DA
:08000000FFFFFFFFFFFFFFFF00
:020000040030CA
:0E000000FF281F3CFFBF85FF03C003E0034045
:00000001FF
